:020000040800F2
:1000000000000220156900088D5B00088F5B000866
:10001000915B0008935B0008955B000800000000FE
:10002000000000000000000000000000A19F000888
:10003000975B000800000000D19F0008995B000852
:100040006569000865690008656900086569000858
:100050006569000865690008656900086569000848
:100060006569000865690008656900086569000838
:100070006569000865690008656900086569000828
:100080006569000865690008A15B000865690008EA
:100090006569000865690008656900086569000808
:1000A00065690008656900086569000865690008F8
:1000B00065690008B15B00086569000865690008AA
:1000C00065690008656900086569000865690008D8
:1000D00065690008C15B000865690008656900087A
:1000E00065690008656900086569000865690008B8
:1000F00065690008656900086569000865690008A8
:100100006569000865690008656900086569000897
:100110006569000865690008656900086569000887
:100120006569000865690008656900086569000877
:100130006569000865690008656900086569000867
:100140006569000865690008656900086569000857
:100150006569000865690008656900086569000847
:100160006569000865690008656900086569000837
:1001700065690008656900086569000800000000FD
:08018000D15B0008656900086D
:1001C00010B5054C237833B9044B13B10448AFF391
:1001D00000800123237010BD100A002000000000E1
:1001E0009C1D010808B5034B1BB103490348AFF33D
:1001F000008008BD00000000140A00209C1D0108BA
:1002000081F0004102E000BF83F0004330B54FEAC7
:1002100041044FEA430594EA050F08BF90EA020F34
:100220001FBF54EA000C55EA020C7FEA645C7FEAC7
:10023000655C00F0E2804FEA5454D4EB5555B8BFEA
:100240006D420CDD2C4480EA020281EA030382EA5B
:10025000000083EA010180EA020281EA0303362DED
:1002600088BF30BD11F0004F4FEA01314FF4801CC0
:100270004CEA113102D0404261EB410113F0004FD2
:100280004FEA03334CEA133302D0524263EB430389
:1002900094EA050F00F0A780A4F10104D5F1200E27
:1002A0000DDB02FA0EFC22FA05F2801841F1000182
:1002B00003FA0EF2801843FA05F359410EE0A5F156
:1002C00020050EF1200E012A03FA0EFC28BF4CF087
:1002D000020C43FA05F3C01851EBE37101F000453D
:1002E00007D54FF0000EDCF1000C7EEB00006EEB4A
:1002F0000101B1F5801F1BD3B1F5001F0CD34908D4
:100300005FEA30004FEA3C0C04F101044FEA44522A
:1003100012F5800F80F09A80BCF1004F08BF5FEAB1
:10032000500C50F1000041EB045141EA050130BD91
:100330005FEA4C0C404141EB0101013C28BFB1F5A3
:10034000801FE9D291F0000F04BF01460020B1FAEE
:1003500081F308BF2033A3F10B03B3F120020CDAC1
:100360000C3208DD02F1140CC2F10C0201FA0CF09F
:1003700021FA02F10CE002F11402D8BFC2F1200C04
:1003800001FA02F120FA0CFCDCBF41EA0C019040BA
:10039000E41AA2BF01EB0451294330BD6FEA040403
:1003A0001F3C1CDA0C340EDC04F11404C4F12002EE
:1003B00020FA04F001FA02F340EA030021FA04F300
:1003C00045EA030130BDC4F10C04C4F1200220FA57
:1003D00002F001FA04F340EA0300294630BD21FA95
:1003E00004F0294630BD94F0000F83F4801306BF5B
:1003F00081F480110134013D4EE77FEA645C18BF4F
:100400007FEA655C29D094EA050F08BF90EA020FE5
:1004100005D054EA000C04BF1946104630BD91EADD
:10042000030F1EBF0021002030BD5FEA545C05D1E0
:100430004000494128BF41F0004130BD14F580041F
:100440003CBF01F5801130BD01F0004545F0FE4193
:1004500041F470014FF0000030BD7FEA645C1ABFC8
:10046000194610467FEA655C1CBF0B46024650EAFF
:10047000013406BF52EA033591EA030F41F400212B
:1004800030BD00BF90F0000F04BF0021704730B5B1
:100490004FF4806404F132044FF000054FF0000186
:1004A00050E700BF90F0000F04BF0021704730B547
:1004B0004FF4806404F1320410F0004548BF40421C
:1004C0004FF000013EE700BF42004FEAE2014FEA71
:1004D00031014FEA02701FBF12F07F4393F07F4F4C
:1004E00081F06051704732F07F4208BF704793F04F
:1004F0007F4F04BF41F40021704730B54FF4607462
:1005000001F0004521F000411CE700BF50EA010264
:1005100008BF704730B54FF000050AE050EA01020D
:1005200008BF704730B511F0004502D5404261EB7D
:1005300041014FF4806404F132045FEA915C3FF4BE
:10054000D8AE4FF003025FEADC0C18BF03325FEA5B
:10055000DC0C18BF033202EBDC02C2F1200300FA0C
:1005600003FC20FA02F001FA03FE40EA0E0021FA31
:1005700002F11444BDE600BF70B54FF0FF0C4CF41F
:10058000E06C1CEA11541DBF1CEA135594EA0C0FD1
:1005900095EA0C0F00F0DEF82C4481EA030621EA0C
:1005A0004C5123EA4C5350EA013518BF52EA033547
:1005B00041F4801143F4801338D0A0FB02CE4FF0F9
:1005C0000005E1FB02E506F00042E0FB03E54FF029
:1005D0000006E1FB03569CF0000F18BF4EF0010E21
:1005E000A4F1FF04B6F5007F64F5407404D25FEA1D
:1005F0004E0E6D4146EB060642EAC62141EA5551D0
:100600004FEAC52040EA5E504FEACE2EB4F1FD0C11
:1006100088BFBCF5E06F1ED8BEF1004F08BF5FEA8F
:10062000500E50F1000041EB045170BD06F0004641
:1006300046EA010140EA020081EA0301B4EB5C04EE
:10064000C2BFD4EB0C0541EA045170BD41F48011E6
:100650004FF0000E013C00F3AB8014F1360FDEBF0B
:10066000002001F0004170BDC4F10004203C35DAE7
:100670000C341BDC04F11404C4F1200500FA05F36A
:1006800020FA04F001FA05F240EA020001F000420B
:1006900021F0004110EBD37021FA04F642EB060181
:1006A0005EEA430E08BF20EAD37070BDC4F10C04AB
:1006B000C4F1200500FA04F320FA05F001FA04F26F
:1006C00040EA020001F0004110EBD37041F100015B
:1006D0005EEA430E08BF20EAD37070BDC4F1200566
:1006E00000FA05F24EEA020E20FA04F301FA05F2CE
:1006F00043EA020321FA04F001F0004121FA04F276
:1007000020EA020000EBD3705EEA430E08BF20EA45
:10071000D37070BD94F0000F0FD101F0004640007F
:1007200041EB010111F4801F08BF013CF7D041EA01
:10073000060195F0000F18BF704703F00046520005
:1007400043EB030313F4801F08BF013DF7D043EAD6
:100750000603704794EA0C0F0CEA135518BF95EA8C
:100760000C0F0CD050EA410618BF52EA4306D1D113
:1007700081EA030101F000414FF0000070BD50EA32
:10078000410606BF1046194652EA430619D094EABC
:100790000C0F02D150EA013613D195EA0C0F05D1A6
:1007A00052EA03361CBF104619460AD181EA0301FA
:1007B00001F0004141F0FE4141F470014FF00000B2
:1007C00070BD41F0FE4141F4780170BD70B54FF04D
:1007D000FF0C4CF4E06C1CEA11541DBF1CEA1355CD
:1007E00094EA0C0F95EA0C0F00F0A7F8A4EB0504AF
:1007F00081EA030E52EA03354FEA013100F08880A6
:100800004FEA03334FF0805545EA131343EA12636E
:100810004FEA022245EA111545EA10654FEA002623
:100820000EF000419D4208BF964244F1FD0404F5DC
:10083000407402D25B084FEA3202B61A65EB030538
:100840005B084FEA32024FF480104FF4002CB6EBF5
:10085000020E75EB030E22BFB61A754640EA0C0075
:100860005B084FEA3202B6EB020E75EB030E22BFB5
:10087000B61A754640EA5C005B084FEA3202B6EBF6
:10088000020E75EB030E22BFB61A754640EA9C00B5
:100890005B084FEA3202B6EB020E75EB030E22BF85
:1008A000B61A754640EADC0055EA060E18D04FEA43
:1008B000051545EA16754FEA06164FEAC30343EAE3
:1008C00052734FEAC2025FEA1C1CC0D111F4801FB0
:1008D0000BD141EA00014FF000004FF0004CB6E7A9
:1008E00011F4801F04BF01430020B4F1FD0C88BF48
:1008F000BCF5E06F3FF6AFAEB5EB030C04BFB6EB53
:10090000020C5FEA500C50F1000041EB045170BD45
:100910000EF0004E4EEA113114EB5C04C2BFD4EB72
:100920000C0541EA045170BD41F480114FF0000EF6
:10093000013C90E645EA060E8DE60CEA135594EA72
:100940000C0F08BF95EA0C0F3FF43BAF94EA0C0F75
:100950000AD150EA01347FF434AF95EA0C0F7FF4EA
:1009600025AF104619462CE795EA0C0F06D152EA3E
:1009700003353FF4FDAE1046194622E750EA410622
:1009800018BF52EA43067FF4C5AE50EA41047FF433
:100990000DAF52EA43057FF4EBAE12E74FF0FF3C98
:1009A00006E000BF4FF0010C02E000BF4FF0010C69
:1009B0004DF804CD4FEA410C7FEA6C5C4FEA430CE2
:1009C00018BF7FEA6C5C1BD001B050EA410C0CBF31
:1009D00052EA430C91EA030F02BF90EA020F002093
:1009E000704710F1000F91EA030F58BF994208BFFA
:1009F00090422CBFD8176FEAE37040F001007047B7
:100A00004FEA410C7FEA6C5C02D150EA013C07D10D
:100A10004FEA430C7FEA6C5CD6D152EA033CD3D058
:100A20005DF8040B704700BF8446104662468C4652
:100A30001946634600E000BF01B5FFF7B7FF002885
:100A400048BF10F1000F01BD4DF808EDFFF7F4FFAE
:100A50000CBF012000205DF808FB00BF4DF808ED39
:100A6000FFF7EAFF34BF012000205DF808FB00BF5C
:100A70004DF808EDFFF7E0FF94BF012000205DF87E
:100A800008FB00BF4DF808EDFFF7CEFF94BF012033
:100A900000205DF808FB00BF4DF808EDFFF7C4FF2C
:100AA00034BF012000205DF808FB00BF4A0011D2CE
:100AB00012F5001211D20DD56FF47873B3EB6252B8
:100AC0000ED44FEAC12343F0004343EA505323FAC4
:100AD00002F070474FF00000704750EA013002D139
:100AE0004FF0FF3070474FF00000704753B94AB9DC
:100AF000002908BF00281CBF4FF0FF314FF0FF3026
:100B000000F074B9ADF1080C6DE904CE00F006F800
:100B1000DDF804E0DDE9022304B070472DE9F04779
:100B2000089D04468E46002B4DD18A42944669D9D1
:100B3000B2FA82F252B101FA02F3C2F1200120FAB4
:100B400001F10CFA02FC41EA030E94404FEA1C4802
:100B5000210CBEFBF8F61FFA8CF708FB16E341EAFE
:100B6000034306FB07F199420AD91CEB030306F184
:100B7000FF3080F01F81994240F21C81023E6344A5
:100B80005B1AA4B2B3FBF8F008FB103344EA034449
:100B900000FB07F7A7420AD91CEB040400F1FF335E
:100BA00080F00A81A74240F207816444023840EA9B
:100BB0000640E41B00261DB1D4400023C5E90043D4
:100BC0003146BDE8F0878B4209D9002D00F0EF8057
:100BD0000026C5E9000130463146BDE8F087B3FA8A
:100BE00083F6002E4AD18B4202D3824200F2F98072
:100BF000841A61EB030301209E46002DE0D0C5E975
:100C0000004EDDE702B9FFDEB2FA82F2002A40F0C0
:100C10009280A1EB0C014FEA1C471FFA8CFE0126C3
:100C2000200CB1FBF7F307FB131140EA01410EFB67
:100C300003F0884208D91CEB010103F1FF3802D20E
:100C4000884200F2CB804346091AA4B2B1FBF7F008
:100C500007FB101144EA01440EFB00FEA64508D92B
:100C60001CEB040400F1FF3102D2A64500F2BB8068
:100C70000846A4EB0E0440EA03409CE7C6F12007B7
:100C8000B34022FA07FC4CEA030C20FA07F401FAFD
:100C900006F31C43F9404FEA1C4900FA06F3B1FB86
:100CA000F9F8200C1FFA8CFE09FB181140EA0141EB
:100CB00008FB0EF0884202FA06F20BD91CEB010188
:100CC00008F1FF3A80F08880884240F28580A8F1E0
:100CD00002086144091AA4B2B1FBF9F009FB101132
:100CE00044EA014100FB0EFE8E4508D91CEB0101D0
:100CF00000F1FF346CD28E456AD90238614440EA73
:100D00000840A0FB0294A1EB0E01A142C846A646F2
:100D100056D353D05DB1B3EB080261EB0E0101FA7B
:100D200007F722FA06F3F1401F43C5E900710026D8
:100D30003146BDE8F087C2F12003D8400CFA02FC2E
:100D400021FA03F3914001434FEA1C471FFA8CFE3E
:100D5000B3FBF7F007FB10360B0C43EA064300FB2E
:100D60000EF69E4204FA02F408D91CEB030300F1CC
:100D7000FF382FD29E422DD9023863449B1B89B283
:100D8000B3FBF7F607FB163341EA034106FB0EF30C
:100D90008B4208D91CEB010106F1FF3816D28B42B9
:100DA00014D9023E6144C91A46EA004638E72E4685
:100DB000284605E70646E3E61846F8E64B45A9D27D
:100DC000B9EB020864EB0C0E0138A3E74646EAE7EC
:100DD000204694E74046D1E7D0467BE7023B61449A
:100DE00032E7304609E76444023842E7704700BF03
:100DF000844641EA000313F003036DD1403A41D326
:100E000051F8043B40F8043B51F8043B40F8043BE4
:100E100051F8043B40F8043B51F8043B40F8043BD4
:100E200051F8043B40F8043B51F8043B40F8043BC4
:100E300051F8043B40F8043B51F8043B40F8043BB4
:100E400051F8043B40F8043B51F8043B40F8043BA4
:100E500051F8043B40F8043B51F8043B40F8043B94
:100E600051F8043B40F8043B51F8043B40F8043B84
:100E700051F8043B40F8043B51F8043B40F8043B74
:100E8000403ABDD2303211D351F8043B40F8043B14
:100E900051F8043B40F8043B51F8043B40F8043B54
:100EA00051F8043B40F8043B103AEDD20C3205D324
:100EB00051F8043B40F8043B043AF9D2043208D01C
:100EC000D2071CBF11F8013B00F8013B01D30B888E
:100ED00003806046704700BF082A13D38B078DD06C
:100EE00010F003038AD0C3F10403D21ADB071CBF3E
:100EF00011F8013B00F8013B80D331F8023B20F8A8
:100F0000023B7BE7043AD9D3013A11F8013B00F8E0
:100F1000013BF9D20B7803704B7843708B78837068
:100F20006046704700000000000000000000000064
:100F300000000000000000000000000000000000B1
:100F4000A2EB0300704700BF02780B78012A28BF8C
:100F50009A42F5D16DE9044540EA0104CDE9026702
:100F60006FF0000C4FEA447212B380EA010414F0EF
:100F7000070F6AD100F0070420F0070004F0030512
:100F800021F007014FEAC505F0E8042314F0040F2F
:100F9000F1E804670CFA05F462EA040266EA040662
:100FA0000AD063EA0403624667EA0407664603E080
:100FB000F0E80423F1E8046782FA4CF582EA0604BB
:100FC000A4FA8CF46CBB83FA4CF583EA0705A5FA06
:100FD0008CF595B950E9022351E9026782FA4CF584
:100FE00082EA0604A4FA8CF483FA4CF583EA070536
:100FF000A5FA8CF52543DBD09CB92DBAB5FA85F45A
:1010000024F0070427FA04F1DDE9026723FA04F368
:1010100003F0FF0001F0FF01FDE80445A0EB010033
:10102000704724BAB4FA84F424F0070426FA04F1D1
:10103000DDE9026722FA04F202F0FF0001F0FF018D
:10104000FDE80445A0EB0100704714F0030F3CD10C
:1010500010F0030428D150F8082B51F8083B82FA0D
:101060004CF582EA0305A5FA8CF55DB950F8042C1D
:1010700051F8043C82FA4CF582EA0305A5FA8CF596
:10108000002DE8D02DBAB5FA85F424F0070423FA30
:1010900004F122FA04F202F0FF0001F0FF01FDE882
:1010A0000445A0EB010070474FEAC40420F00300A0
:1010B00050F8082B21F0030151F8083B0CFA04F416
:1010C00062EA040263EA0403C9E710F003041AD0D9
:1010D000A1EB040120F00300E40750F8042B06D034
:1010E0000FD28B785FFAA2F4E41A06D12BB1CB7839
:1010F0005FFAB2F4E41A00D11BB920465DF8104B38
:10110000704701F1040150F8042BCC0721F00301D2
:1011100051F8043B48D824D222F07F4482FA4CF59F
:1011200094EA1325A5FA8CF50AD165B951F8043B68
:1011300084EA0204B4EB036F0ED150F8042BEBE702
:101140004FEA132355E035F07F454DD10878FDE88F
:101150000445C0F1000070474FEA126203F0FF033C
:1011600047E002EA1C4482FA4CF594EA1345A5FADA
:101170008CF50AD165B951F8043B84EA0204B4EB5A
:10118000034F0CD150F8042BEBE74FEA134330E048
:1011900015EA1C4528D10B884FEA124229E04FEA94
:1011A000124203EA1C4324E002F0FF0482FA4CF5E9
:1011B00094EA1365A5FA8CF50AD165B951F8043B98
:1011C00084EA0204B4EB032F09D150F8042BEBE7B7
:1011D0004FEA13630DE015F0FF0F05D10B684FEADE
:1011E000122223F07F4304E04FF00000FDE80445A5
:1011F000704712BA1BBA82FA4CF482EA0304A4FACA
:101200008CF5B5FA85F402FA04F203FA04F34FEA16
:101210001260FDE80445A0EB136070470000000079
:1012200000000000000000000000000000000000BE
:1012300000000000000000000000000000000000AE
:1012400090F800F06DE9024520F007016FF0000C06
:1012500010F0070491F820F040F049804FF00004AE
:101260006FF00700D1E9002391F840F000F1080089
:1012700082FA4CF2A4FA8CF283FA4CF3A2FA8CF3C1
:101280004BBBD1E9022382FA4CF200F10800A4FA28
:101290008CF283FA4CF3A2FA8CF3E3B9D1E904237C
:1012A00082FA4CF200F10800A4FA8CF283FA4CF3B3
:1012B000A2FA8CF37BB9D1E9062301F1200182FA6D
:1012C0004CF200F10800A4FA8CF283FA4CF3A2FA73
:1012D0008CF3002BC6D0002A04BF04301A4612BA81
:1012E000B2FA82F2FDE8024500EBD2007047D1E984
:1012F000002304F00305C4F100004FEAC50514F013
:10130000040F91F840F00CFA05F562EA05021CBFE3
:1013100063EA050362464FF00004A9E700000000FD
:1013200001F0FF01102A2BDB10F0070F08D010F896
:10133000013B013A8B422DD010F0070F42B3F6D19A
:10134000F0B441EA012141EA014122F007047FF0B3
:1013500000070023F0E80256083C85EA010586EA0A
:10136000010685FA47F5A3FA87F586FA47F6A5FA46
:1013700087F68EB9EED1F0BC01F0FF0102F0070252
:1013800032B110F8013B013A83EA010313B1F8D1FD
:101390000020704701387047002D06BF35460338DE
:1013A000073815F0010F07D1013015F4807F02BF17
:1013B000013015F4C03F0130F0BC0138704700BF68
:1013C0004FEA410C7FEA6C5C02D150EA013C0AD141
:1013D0004FEA430C7FEA6C5C02D152EA033C02D133
:1013E0004FF0000070474FF0010070474FEA410294
:1013F00012F5001215D211D56FF47873B3EB625267
:1014000012D94FEAC12343F0004343EA505311F08D
:10141000004F23FA02F018BF404270474FF000001F
:10142000704750EA013005D111F0004008BF6FF05D
:10143000004070474FF00000704700BF08B504F04F
:10144000E3F908BD10B5044604F09CF9230A5B00DB
:10145000DBB2603B03F0FE0004F07EFA04F00AFA0F
:10146000E0B204F079FA04F005FA04F08BF9A12057
:1014700004F072FA04F0FEF9002004F0A1FA044628
:1014800004F0A4F9204610BD38B504460D4604F01A
:1014900079F9230A5B00DBB2603B03F0FE0004F045
:1014A0005BFA04F0E7F9E0B204F056FA04F0E2F96E
:1014B000284604F051FA04F0DDF904F087F90A2017
:1014C00000F018FA38BD70B50C4607E0461CB6B2FD
:1014D000FFF7B8FF04F8010B2A463046531E9DB2B1
:1014E000002AF3D170BD70B504460E4607E016F829
:1014F000011B2046FFF7C8FF0134A4B22A46531E41
:101500009DB2002AF3D170BD00B585B000230093D1
:101510000193029303931748174A02604FF48032F5
:10152000426083600361037680F820304FF0805280
:10153000C2624FF000628262C3600122C26180F821
:101540003030426105F0FCFA68B9062300930123AC
:101550000193002302936946064805F069FC28B907
:1015600005B05DF804FB03F02CFFEEE703F029FF64
:10157000F6E700BF2C0A00200020014010B588B01B
:10158000002303930493059306930793026803F1E2
:10159000804303F590339A4201D008B010BD002477
:1015A000019403F58C335A6C42F480725A645A6C7D
:1015B00002F480720192019A02941A6B42F00102C5
:1015C0001A631B6B03F001030293029B40230393F6
:1015D0000323049303A9064805F058FE224621463A
:1015E000122005F005FD122005F03AFDD5E700BFF9
:1015F0000000024008B5022000F05CF908BD0000C0
:1016000038B50F4D01224FF40061284605F037FF31
:101610000C4C01221146204605F031FFFFF7EAFF8E
:1016200000224FF40061284605F029FFFFF7E2FF92
:1016300000220121204605F022FFFFF7DBFF38BD25
:10164000001402400004024010B50C4C00224FF47C
:101650000061204605F013FFFFF7CCFF0122114681
:10166000074805F00CFFFFF7C5FF01224FF40061AA
:10167000204605F004FFFFF7BDFF10BD0014024037
:101680000004024000B589B000210191154B1A6B8E
:1016900042F002021A631A6B02F002020192019AEE
:1016A00002911A6B42F020021A631B6B03F02003B5
:1016B0000293029B012303931122049205930323B7
:1016C000069303A9084805F0E1FD4FF40063039376
:1016D00003A9064805F0DAFDFFF7B6FF09B05DF88B
:1016E00004FB00BF00380240000402400014024026
:1016F00038B501224FF40061134805F0C0FEFFF732
:1017000079FF01221146114805F0B9FEFFF772FF7B
:1017100000244FF400610C4805F0AAFE054648B1CC
:101720000134E4B2FA2C02D8FFF764FFF1E7FFF7C7
:101730008BFF012500220121044805F0A0FEFFF7E0
:1017400059FF284638BD00BF001402400004024083
:1017500038B5104C00224FF40061204605F08FFE92
:10176000FFF748FF0C4D01221146284605F087FE81
:10177000FFF740FF00220121284605F080FEFFF719
:1017800039FF01224FF40061204605F078FEFFF793
:1017900031FF38BD001402400004024010B50122A0
:1017A0004FF400610A4805F06AFEFFF723FF094C79
:1017B00001221146204605F062FEFFF71BFF0022C2
:1017C0000121204605F05BFEFFF714FF10BD00BFAE
:1017D000001402400004024070B50446002518E0E1
:1017E00000224FF40061144805F049FEFFF702FFA4
:1017F000124E01221146304605F041FEFFF7FAFE77
:1018000000220121304605F03AFE6400E4B20135C1
:10181000EDB2072D09D814F0800FE1D001224FF46A
:101820000061054805F02BFEE0E701224FF400615E
:10183000014805F024FE70BD00140240000402407F
:1018400070B506460024254608E000220121124812
:1018500005F015FEFFF7CEFE0135EDB2072D12D8CB
:101860006400E4B2012211460B4805F008FEFFF7C0
:10187000C1FE4FF40061094805F0FAFD0028E4D0EC
:101880000134E4B2E1E71EB9FFF788FF204670BDDE
:10189000FFF75EFFFAE700BF0004024000140240B9
:1018A00010B50446042005F0FDFB014B1C6010BD83
:1018B000740A002010B44FF0E02254690C4B1B68EE
:1018C00000FB03FC9369002104E0E01A0244114488
:1018D000614509D21A464FF0E0239B699A42FAD03B
:1018E000F3D9D21A1144F3E75DF8044B704700BFF7
:1018F000740A002038B50D4CA4FB0034650A2C4650
:101900004FF4077303FB150085B203E00848FFF7A7
:10191000D1FF013C002CF9D105B938BD4FF47A70E4
:1019200005FB00F0FFF7C6FFF7E700BF49D6B9F2A5
:10193000603D080008B580B2FFF7DCFF08BD00007D
:1019400000B583B000230193164A116B41F4800166
:101950001163126B02F480020192019A1248134A39
:1019600002604360802282604FF40072C2604FF4D4
:10197000806202614FF4006242614FF40052826162
:10198000C36103620422426203228262C362036370
:1019900005F002FC10B903B05DF804FB03F011FD83
:1019A000F9E700BF00380240780A002010640240C6
:1019B0002DE9F04186B00023019302930393049331
:1019C0000593224B1B6813B106B0BDE8F0811F4B95
:1019D00001221A60002600961D4B9A6B42F001020C
:1019E0009A639B6B03F001030093009B4FF48058B4
:1019F000CDF8048002270297032504950C24059452
:101A000001A9144805F042FC4FF680730193029738
:101A100003960495059401A90F4805F037FC4CF294
:101A200033730193029703960495059401A90B481B
:101A300005F02CFCCDF804800297039604950594DC
:101A400001A9074805F022FCBEE700BFD80A002024
:101A5000003802400014024000100240000C024016
:101A60000018024010B58EB0002307930893099325
:101A70000A930B930C930D9300930193029303939A
:101A80000493059306931A484FF02042026002F532
:101A90008272426006228260C3600361102242614A
:101AA0008361C361036243624FF480518162C36208
:101AB0004FF4804101634363836343640F230793BF
:101AC0000893FF2409940A930B9211210C9100931F
:101AD000019302940393049205916A4607A906F0C4
:101AE000F9FC08B90EB010BD03F06BFCFAE700BFBB
:101AF000DC0A002008B5FFF75BFF08BDF8B5044617
:101B00000F461546FFF77CFD7020FFF765FEFFF7D7
:101B1000EFFDE0B2FFF760FEFFF7EAFD0026344676
:101B200001E00134E4B2AC4207D2385DFFF754FE65
:101B3000FFF7DEFD06460028F3D0FFF785FD3046AF
:101B4000F8BD70B504460E461546FFF759FD7020E6
:101B5000FFF742FEFFF7CCFDE0B2FFF73DFEFFF7D7
:101B6000C7FDFFF74DFD7120FFF736FEFFF7C0FD03
:101B7000002408E0681E201A18BF0120FFF760FE4D
:101B800030550134E4B2AC42F4D3FFF75DFD70BDD3
:101B90002DE9F04389B0002500953E4B1A6B42F0C9
:101BA00004021A631A6B02F004020092009A019573
:101BB0001A6B42F002021A631B6B03F002030193DB
:101BC000019B4FF4005703970124049405944FF0B0
:101BD0000309CDF81890304E03A9304605F056FBA6
:101BE0004FF00208CDF80C8004950594CDF81890BC
:101BF00003A92A4805F04AFBFFF744FD2A46394667
:101C0000304605F03CFC1420FFF774FE22463946AE
:101C1000304605F034FC3220FFF76CFE8DF808509A
:101C2000224602A92846FFF769FF224602A9A420FE
:101C3000FFF764FF16238DF80830224602A98020A2
:101C4000FFF75CFF0C238DF80830224602A988209C
:101C5000FFF754FF424602A9A120FFF772FF9DF84B
:101C60000820302A09D09DF80930012B09D0022B19
:101C700007D0012009B0BDE8F0839DF809304B453D
:101C8000F1D19DF8091001EB0221054808F056FB3F
:101C90000020EFE700380240000802400004024044
:101CA000B81D010830B583B000238DF807305E4BB6
:101CB0001A780132D2B21A705C4BA3FB0213DB0814
:101CC00003EB83035900511A11F0FF0F02D0092AC8
:101CD00000F2868001220DF107010220FFF731FF9B
:101CE0009DF8070000F00F0000287AD0052800F2C8
:101CF00094804FF6FF738340DB436FEA83436FEAC0
:101D000093434B4A938600242DE04A4B1A889DF852
:101D100000301B0203F470639DF801100B44D31ACA
:101D20004349221D01EB420293809DF802301B02C1
:101D300003F470639DF80320134404F1100221F8AA
:101D400012309DF8003003F0F003802B09D0384AA0
:101D500005F11003002122F813102B1D02EB4303A1
:101D600099800134E4B2042C2DD8314B9B8E25464A
:101D7000234113F0010FF4D0042269462E4B33F8AF
:101D80001400FFF7DEFE2A4B93F8443013F0010FE6
:101D9000BBD09DF800301B0203F470639DF8012056
:101DA0001344234A04F1100122F811309DF8023047
:101DB0001B0203F470639DF803100B44211D02EB1A
:101DC00041029380BDE71A4B9B8923B9184B1B8CAA
:101DD0000BB98DF80730144B00221A70012000E077
:101DE00000209DF8073013F01F0F0DD1104A938E7D
:101DF000B2F93420002A12DB0D4A4FF6FF719181AF
:101E0000118403F460439386074B1B78F02B02D9AF
:101E1000054B0A221A7003B030BD0020E1E7C3F37E
:101E20000E03034A9386EFE72C0B0020CDCCCCCCDD
:101E30000C000020800B0020C41D010870B58EB07E
:101E4000002409940A940B940C940D9401943F4B34
:101E50001A6B42F010021A631A6B02F01002019220
:101E6000019A02941A6B42F004021A631A6B02F090
:101E700004020292029A03941A6B42F020021A633F
:101E80001A6B02F020020392039A04941A6B42F038
:101E900080021A631A6B02F080020492049A05947D
:101EA0001A6B42F001021A631A6B02F001020592EA
:101EB000059A06941A6B42F002021A631A6B02F03A
:101EC00002020692069A07941A6B42F008021A63FD
:101ED0001A6B02F008020792079A08941A6B42F0F4
:101EE00040021A631B6B03F040030893089B184ED3
:101EF00001224FF40071304605F0C1FA154D012260
:101F00004FF40041284605F0BAFA082309930A94D1
:101F100001240B9409A9104805F0B8F94FF4007397
:101F200009930A940B9402230C9309A9304605F0F7
:101F3000ADF94FF4004309930A940B9403230C93D7
:101F400009A9284605F0A2F90EB070BD003802407C
:101F5000001402400004024000100240F8B504469C
:101F60000F461546FFF74CFB2820FFF735FCFFF71F
:101F7000BFFB200AFFF730FCFFF7BAFBE0B2FFF728
:101F80002BFCFFF7B5FB0026344601E00134E4B238
:101F9000AC4207D2385DFFF71FFCFFF7A9FB0646EE
:101FA0000028F3D0FFF750FB3046F8BD70B504466B
:101FB0000E461546FFF724FB2820FFF70DFCFFF720
:101FC00097FB200AFFF708FCFFF792FBE0B2FFF750
:101FD00003FCFFF78DFBFFF713FB2920FFF7FCFB4A
:101FE000FFF786FB002408E0681E201A18BF0120B6
:101FF000FFF726FC30550134E4B2AC42F4D3FFF7CE
:1020000023FB70BD2DE9F0478AB0002401943B4BBF
:102010001A6B42F004021A631A6B02F00402019276
:10202000019A02941A6B42F002021A631B6B03F0CE
:1020300002030293029B4FF40058CDF8148001254F
:1020400006950795032608962D4F05A9384605F0F5
:102050001DF94FF0020ACDF814A0069407950896D2
:10206000DFF8A89005A9484605F010F9FFF70AFB2C
:1020700022464146384605F002FA0A20FFF73AFCAC
:102080002A464146384605F0FAF90A20FFF732FCA5
:10209000CDF814A006940794089605A9484605F0C3
:1020A000F5F86420FFF726FC042203A948F240104B
:1020B000FFF77CFF8DF81040124903A8FEF744FF9C
:1020C00010B9114B0A221A7002238DF80C3001222C
:1020D00003A948F24000FFF741FF0A20FFF70AFC7E
:1020E00000248DF80C40012203A948F24000FFF7BC
:1020F00035FF20460AB0BDE8F08700BF0038024037
:1021000000080240D01D0108000000200004024029
:1021100010B584B08DF8070000238DF80B30BC4B50
:102120001A780132D2B21A70BA4BA3FB0213DB0841
:1021300003EB8303A2EB430313F0FF0F02D0092A42
:1021400000F2408101220DF1070148F24E10FFF725
:102150002DFF9DF807309DF90720002A23DB9DF80D
:10216000070000F00F00002800F02D81AA4B1A781C
:10217000904200F237814FF6FF738340A7498C8E5F
:10218000DB436FEA83436FEA93438B868889D31CD2
:1021900001EB430398800B8C0F3221F8123000239F
:1021A0008DF80B3035E09C4A127803F00F039A4209
:1021B000D5D300238DF80B3001220DF10B0148F22D
:1021C0004E10FFF7CBFECAE7944B93F8443013F060
:1021D000010F5ED09DF80D209DF80C309DF80B107E
:1021E00003EB02238D4A01F1100022F810309DF814
:1021F0000F009DF80E3003EB00239BB2C3F548732C
:10220000043102EB410293809DF80B3001338DF8CD
:102210000B309DF80B00804B1B78984280F0A28019
:102220007E4B9B8E034113F0010FEDD0042203A9D6
:102230007B4B33F81000FFF7B9FE7A4B9B8845F2D1
:1022400010529342C0D044F24232934238D041F20D
:1022500018029342D8D1714B93F8443013F0010F18
:1022600066D09DF80F309DF80E109DF80B2001EB05
:1022700003216A4B02F1100023F810109DF80D00A5
:102280009DF80C1001EB0021043203EB420399800E
:10229000BAE79DF80D209DF80C109DF80B3001EB6E
:1022A00002215E481A1D00EB420291809DF80F103A
:1022B0009DF80E2002EB0122103320F81320A3E733
:1022C000564B93F8443013F0010F16D09DF80D20B3
:1022D0009DF80C109DF80B3001EB02214F481A1DA0
:1022E00000EB420291809DF80F109DF80E2002EB4A
:1022F0000122103320F8132086E79DF80D209DF869
:102300000C309DF80B1003EB0223444A01F110003E
:1023100022F810309DF80F009DF80E3003EB0023DB
:102320009BB2C3F58873043102EB410293806BE7E3
:102330009DF80F209DF80E3003EB02239BB29DF811
:102340000B20C3F548733548111D00EB41018B800C
:102350009DF80D109DF80C3003EB0123103220F88E
:10236000123051E72D4A91892E4A1288914205D8A0
:102370002A4A118C2B4A528891421ED99DF8072077
:1023800012F00E0F09D0254BDA899A815A8C1A84E3
:102390001F4B00221A70012015E0204AD91C02EBC5
:1023A0004101898891810F3332F8133013848023DF
:1023B0008DF807309486012005E0154B00221A7035
:1023C000012000E000209DF8073003F08F03802BF0
:1023D0000AD00F4B1B78F02B02D90D4B0A221A7032
:1023E00004B010BD0020EEE70C4A938EB2F9342001
:1023F000002A08DB094A4FF6FF719181118403F42A
:1024000060439386E5E7C3F30E03044A9386E0E74F
:102410002D0B0020CDCCCCCC000000200C000020E7
:10242000D81D0108800B002082B04FF0D843B3F8CC
:1024300080309BB2ADF80630BDF8060080B202B025
:1024400070470246012002E002FB00F019464B1ED5
:10245000DBB20029F8D1704782B0ADF80600BDF8B4
:1024600006309BB2ADF80630BDF806309BB24FF097
:10247000D842A2F8803002B0704782B0ADF80600B2
:10248000BDF806309BB2ADF80630BDF806309BB201
:102490004FF0D842A2F87E3002B070474FF0D843D8
:1024A000A3F87E00A3F8801070470000034B1A8940
:1024B0004FF0D843A3F87E20704700BF800B002068
:1024C00070B505460C46404B9B8841F6631293421B
:1024D00017D045F21052934257D03B4E7089FFF708
:1024E000CCFF280AFFF7B8FFE8B2FFF7B5FFB089C5
:1024F000FFF7C3FF200AFFF7AFFFE0B2FFF7ACFF23
:1025000070BD314B9B7953BB2F4B1888451BADB227
:10251000013DADB25889FFF7B0FF0020FFF79CFFE7
:102520000020FFF799FF280AFFF796FFE8B2FFF7B0
:1025300093FF254DA889FFF7A0FF200AFFF78CFF26
:10254000E0B2FFF789FF68880138C0F30F20FFF77A
:1025500083FF68880138C0B2FFF77EFFD0E71A4ECC
:102560007089FFF78AFF280AFFF776FFE8B2FFF7C6
:1025700073FF30880138C0F30F20FFF76DFF3088FC
:102580000138C0B2FFF768FFD3E70F4E7089FFF73D
:1025900074FF280AFFF760FF7089013080B2FFF7EF
:1025A0006CFFE8B2FFF758FFB089FFF766FF200A1B
:1025B000FFF752FFB089013080B2FFF75EFFE0B253
:1025C000FFF74AFF9CE700BF800B002010B5744B5B
:1025D0009B79012B10D02BB9714B9A8841F663136C
:1025E0009A420FD00138062800F28480DFE800F01C
:1025F0007472706E6C6A1600694A918841F66312B3
:102600009142E8D00728EDD8DFE800F072706C6ED8
:1026100006046A68002402E0802400E0E024604BA5
:102620009B8845F21052934266D0362049F24132DF
:10263000934203D047F28972934201D144F00804D7
:102640002146FFF72BFF564B9B8841F663129342BE
:102650000AD014F0200F52D0514A1188528891426A
:1026600002D24F480280418045F2105293424FD02F
:102670004B4C6089FFF701FF0020FFF7EDFE0020C3
:10268000FFF7EAFE20880138C0F30F20FFF7E4FED1
:1026900020880138C0B2FFF7DFFEA089FFF7EDFE0A
:1026A0000020FFF7D9FE0020FFF7D6FE6088013832
:1026B000C0F30F20FFF7D0FE60880138C0B2FFF7EB
:1026C000CBFE10BDA024AAE76024A8E72024A6E73B
:1026D000C024A4E74024A2E78024A0E740249EE78A
:1026E000C0249CE720249AE7602498E7E02496E73A
:1026F000A02494E7002492E74FF4585096E7284A24
:10270000118852889142AFD9254802804180ABE7B9
:10271000234C6089FFF7B1FE0020FFF79DFE608922
:10272000013080B2FFF7A9FE0020FFF795FE608917
:10273000023080B2FFF7A1FE20880138C0F30F20DD
:10274000FFF78AFE6089033080B2FFF796FE20888B
:102750000138C0B2FFF780FEA089FFF78EFE00208F
:10276000FFF77AFEA089013080B2FFF786FE0020D5
:10277000FFF772FEA089023080B2FFF77EFE60880C
:102780000138C0F30F20FFF767FEA089033080B245
:10279000FFF773FE60880138C0B2FFF75DFE90E777
:1027A000800B002010B51446FFF78AFEFFF77EFE6F
:1027B000A4B24FF0D843A3F8804010BD0000000041
:1027C00010B50446BE20FFF758FE0520FFF744FE73
:1027D0002046FDF767FE0CA3D3E90023FDF7CCFEEE
:1027E000FEF764F980B2FFF737FE0120FFF734FEF1
:1027F000FF20FFF731FE0020FFF72EFE0020FFF73D
:102800002BFE10BDAFF30080666666666666044008
:1028100008B5444B9871002843D1F0221A804FF438
:10282000A0725A809B8845F21052934212D041F612
:10283000631293421FD03B4A2C2111812A215181DE
:102840002B21918145F21032934222D00020FFF7D4
:10285000BDFE08BD334A4FF4305111814FF4285169
:1028600051814FF42C5191814FF4F07111804FF44C
:1028700048715180E6E72B4A2C2111812B2151818F
:102880002A2191814FF4F07111804FF448715180E9
:10289000D8E7244B4FF4A0721A804FF4F0725A809C
:1028A000D4E7204B4FF4A0721A80F0225A809B8804
:1028B00045F21052934216D041F66312934223D050
:1028C000184A2C2111812A2151812B21918145F215
:1028D00010329342BAD1134B4FF4F0721A804FF476
:1028E000A0725A80B2E70F4A4FF4305111814FF471
:1028F000285151814FF42C5191814FF4487111802E
:102900004FF4F0715180E2E7064A2C2111812A210F
:1029100051812B2191814FF4487111804FF4F07156
:102920005180D4E7800B002008B51120FFF7A5FDEA
:102930007820FEF7DFFF3620FFF79FFD0020FFF72E
:102940008BFD3A20FFF799FD0520FFF785FDB220AA
:10295000FFF793FD0C20FFF77FFD0C20FFF77CFDB8
:102960000020FFF779FD3320FFF776FD3320FFF7D6
:1029700073FDB720FFF781FD3520FFF76DFDBB200C
:10298000FFF77BFD3220FFF767FDC020FFF775FDE5
:102990000C20FFF761FDC220FFF76FFD0120FFF75C
:1029A0005BFDC320FFF769FD1020FFF755FDC42034
:1029B000FFF763FD2020FFF74FFDC620FFF75DFD09
:1029C0000F20FFF749FDD020FFF757FDA420FFF7A8
:1029D00043FDA120FFF740FDE020FFF74EFDD02092
:1029E000FFF73AFD0020FFF737FD0220FFF734FD27
:1029F0000720FFF731FD0A20FFF72EFD2820FFF703
:102A00002BFD3220FFF728FD4420FFF725FD422053
:102A1000FFF722FD0620FFF71FFD0E20FFF71CFD2C
:102A20001220FFF719FD1420FFF716FD1720FFF7FE
:102A300013FDE120FFF721FDD020FFF70DFD002061
:102A4000FFF70AFD0220FFF707FD0720FFF704FD4F
:102A50000A20FFF701FD2820FFF7FEFC3120FFF7D9
:102A6000FBFC5420FFF7F8FC4720FFF7F5FC0E2095
:102A7000FFF7F2FC1C20FFF7EFFC1720FFF7ECFC40
:102A80001B20FFF7E9FC1E20FFF7E6FC2A20FFF7DA
:102A9000F4FC0020FFF7E0FC0020FFF7DDFC002045
:102AA000FFF7DAFCEF20FFF7D7FC2B20FFF7E5FC60
:102AB0000020FFF7D1FC0020FFF7CEFC0120FFF73C
:102AC000CBFC3F20FFF7C8FC2920FFF7D6FC08BD50
:102AD00008B5CF20FFF7D1FC0020FFF7BDFCC120D7
:102AE000FFF7BAFC3020FFF7B7FCED20FFF7C5FC7D
:102AF0006420FFF7B1FC0320FFF7AEFC1220FFF7C4
:102B0000ABFC8120FFF7A8FCE820FFF7B6FC85208E
:102B1000FFF7A2FC1020FFF79FFC7A20FFF79CFC38
:102B2000CB20FFF7AAFC3920FFF796FC2C20FFF7FB
:102B300093FC0020FFF790FC3420FFF78DFC02206F
:102B4000FFF78AFCF720FFF798FC2020FFF784FCB2
:102B5000EA20FFF792FC0020FFF77EFC0020FFF741
:102B60007BFCC020FFF789FC1B20FFF775FCC12010
:102B7000FFF783FC0120FFF76FFCC520FFF77DFC0A
:102B80003020FFF769FC3020FFF766FCC720FFF715
:102B900074FCB720FFF760FC3620FFF76EFC48207E
:102BA000FFF75AFC3A20FFF768FC5520FFF754FC6A
:102BB000B120FFF762FC0020FFF74EFC1A20FFF760
:102BC0004BFCB620FFF759FC0A20FFF745FCA2207A
:102BD000FFF742FCF220FFF750FC0020FFF73CFC1F
:102BE0002620FFF74AFC0120FFF736FCE020FFF724
:102BF00044FC0F20FFF730FC2A20FFF72DFC282093
:102C0000FFF72AFC0820FFF727FC0E20FFF724FC23
:102C10000820FFF721FC5420FFF71EFCA920FFF736
:102C20001BFC4320FFF718FC0A20FFF715FC0F20C0
:102C3000FFF712FC0020FFF70FFC0020FFF70CFC51
:102C40000020FFF709FC0020FFF706FCE120FFF75A
:102C500014FC0020FFF700FC1520FFF7FDFB1720F8
:102C6000FFF7FAFB0720FFF7F7FB1120FFF7F4FB54
:102C70000620FFF7F1FB2B20FFF7EEFB5620FFF7B6
:102C8000EBFB3C20FFF7E8FB0520FFF7E5FB1020FE
:102C9000FFF7E2FB0F20FFF7DFFB3F20FFF7DCFB36
:102CA0003F20FFF7D9FB0F20FFF7D6FB2B20FFF7C4
:102CB000E4FB0020FFF7D0FB0020FFF7CDFB012055
:102CC000FFF7CAFB3F20FFF7C7FB2A20FFF7D5FB22
:102CD0000020FFF7C1FB0020FFF7BEFB0020FFF73D
:102CE000BBFBEF20FFF7B8FB1120FFF7C6FB7820F6
:102CF000FEF700FE2920FFF7C0FB08BD08B5ED2058
:102D0000FFF7BBFB0120FFF7A7FBFE20FFF7A4FBAB
:102D1000EE20FFF7B2FBDE20FFF79EFB2120FFF73E
:102D20009BFBF120FFF7A9FB0120FFF795FBDF20BC
:102D3000FFF7A3FB1020FFF78FFBC420FFF79DFBDD
:102D40008F20FFF789FBC620FFF797FB0020FFF7D6
:102D500083FBE220FFF780FBE220FFF77DFBE22010
:102D6000FFF77AFBBF20FFF788FBAA20FFF774FB71
:102D7000B020FFF782FB0D20FFF76EFB0020FFF76E
:102D80006BFB0D20FFF768FB0020FFF765FB1120B0
:102D9000FFF762FB0020FFF75FFB1920FFF75CFBEA
:102DA0000020FFF759FB2120FFF756FB0020FFF71B
:102DB00053FB2D20FFF750FB0020FFF74DFB3D207C
:102DC000FFF74AFB0020FFF747FB5D20FFF744FBBE
:102DD0000020FFF741FB5D20FFF73EFB0020FFF7DF
:102DE0003BFBB120FFF749FB8020FFF735FB0020BC
:102DF000FFF732FB8B20FFF72FFB0020FFF72CFBA8
:102E00009620FFF729FB0020FFF726FBB220FFF7F3
:102E100034FB0020FFF720FB0020FFF71DFB022002
:102E2000FFF71AFB0020FFF717FB0320FFF714FB47
:102E30000020FFF711FBB320FFF71FFB0020FFF777
:102E40000BFB0020FFF708FB0020FFF705FB00202D
:102E5000FFF702FB0020FFF7FFFA0020FFF7FCFA64
:102E60000020FFF7F9FA0020FFF7F6FA0020FFF73D
:102E7000F3FA0020FFF7F0FA0020FFF7EDFA002048
:102E8000FFF7EAFA0020FFF7E7FA0020FFF7E4FA7D
:102E90000020FFF7E1FA0020FFF7DEFA0020FFF73D
:102EA000DBFA0020FFF7D8FA0020FFF7D5FA002060
:102EB000FFF7D2FA0020FFF7CFFA0020FFF7CCFA95
:102EC0000020FFF7C9FA0020FFF7C6FAB420FFF789
:102ED000D4FA8B20FFF7C0FA0020FFF7BDFA962046
:102EE000FFF7BAFA0020FFF7B7FAA120FFF7B4FA0C
:102EF0000020FFF7B1FAB520FFF7BFFA0220FFF775
:102F0000ABFA0020FFF7A8FA0320FFF7A5FA00208C
:102F1000FFF7A2FA0420FFF79FFA0020FFF79CFAC0
:102F2000B620FFF7AAFA0020FFF796FA0020FFF775
:102F300093FAB720FFF7A1FA0020FFF78DFA0020DF
:102F4000FFF78AFA3F20FFF787FA0020FFF784FA9D
:102F50005E20FFF781FA0020FFF77EFA6420FFF77A
:102F60007BFA0020FFF778FA8C20FFF775FA002033
:102F7000FFF772FAAC20FFF76FFA0020FFF76CFA48
:102F8000DC20FFF769FA0020FFF766FA7020FFF7F0
:102F900063FA0020FFF760FA9020FFF75DFA002047
:102FA000FFF75AFAEB20FFF757FA0020FFF754FA21
:102FB000DC20FFF751FA0020FFF74EFAB820FFF7A8
:102FC0005CFA0020FFF748FA0020FFF745FA0020DE
:102FD000FFF742FA0020FFF73FFA0020FFF73CFA24
:102FE0000020FFF739FA0020FFF736FA0020FFF73C
:102FF00033FABA20FFF741FA2420FFF72DFA002018
:10300000FFF72AFA0020FFF727FA0020FFF724FA3B
:10301000C120FFF732FA2020FFF71EFA0020FFF749
:103020001BFA5420FFF718FA0020FFF715FAFF20CB
:10303000FFF712FA0020FFF70FFAC220FFF71DFA80
:103040000A20FFF709FA0020FFF706FA0420FFF72D
:1030500003FA0020FFF700FAC320FFF70EFA3C2026
:10306000FFF7FAF90020FFF7F7F93A20FFF7F4F934
:103070000020FFF7F1F93920FFF7EEF90020FFF704
:10308000EBF93720FFF7E8F90020FFF7E5F93C20DE
:10309000FFF7E2F90020FFF7DFF93620FFF7DCF950
:1030A0000020FFF7D9F93220FFF7D6F90020FFF70B
:1030B000D3F92F20FFF7D0F90020FFF7CDF92C200E
:1030C000FFF7CAF90020FFF7C7F92920FFF7C4F975
:1030D0000020FFF7C1F92620FFF7BEF90020FFF717
:1030E000BBF92420FFF7B8F90020FFF7B5F9242039
:1030F000FFF7B2F90020FFF7AFF92320FFF7ACF993
:103100000020FFF7A9F93C20FFF7A6F90020FFF700
:10311000A3F93620FFF7A0F90020FFF79DF9322030
:10312000FFF79AF90020FFF797F92F20FFF794F99E
:103130000020FFF791F92C20FFF78EF90020FFF710
:103140008BF92920FFF788F90020FFF785F9262061
:10315000FFF782F90020FFF77FF92420FFF77CF9C1
:103160000020FFF779F92420FFF776F90020FFF718
:1031700073F92320FFF770F90020FFF76DF9C420E1
:10318000FFF77BF96220FFF767F90020FFF764F98A
:103190000520FFF761F90020FFF75EF98420FFF7B3
:1031A0005BF90020FFF758F9F020FFF755F90020F0
:1031B000FFF752F91820FFF74FF90020FFF74CF9FD
:1031C000A420FFF749F90020FFF746F91820FFF780
:1031D00043F90020FFF740F95020FFF73DF90020A8
:1031E000FFF73AF90C20FFF737F90020FFF734F921
:1031F0001720FFF731F90020FFF72EF99520FFF790
:103200002BF90020FFF728F9F320FFF725F900201C
:10321000FFF722F9E620FFF71FF90020FFF71CF95E
:10322000C520FFF72AF93220FFF716F90020FFF733
:1032300013F94420FFF710F90020FFF70DF965207E
:10324000FFF70AF90020FFF707F97620FFF704F9E6
:103250000020FFF701F98820FFF7FEF80020FFF7B4
:10326000FBF8C620FFF709F92020FFF7F5F800204A
:10327000FFF7F2F81720FFF7EFF80020FFF7ECF860
:103280000120FFF7E9F80020FFF7E6F8C720FFF775
:10329000F4F80020FFF7E0F80020FFF7DDF8002049
:1032A000FFF7DAF80020FFF7D7F8C820FFF7E5F8B6
:1032B0000020FFF7D1F80020FFF7CEF80020FFF73D
:1032C000CBF80020FFF7C8F8C920FFF7D6F8002098
:1032D000FFF7C2F80020FFF7BFF80020FFF7BCF8A7
:1032E0000020FFF7B9F80020FFF7B6F80020FFF73D
:1032F000B3F80020FFF7B0F80020FFF7ADF800208A
:10330000FFF7AAF80020FFF7A7F80020FFF7A4F8BE
:103310000020FFF7A1F80020FFF79EF80020FFF73C
:103320009BF80020FFF798F80020FFF795F8E020C1
:10333000FFF7A3F81620FFF78FF80020FFF78CF8AF
:103340001C20FFF789F80020FFF786F82120FFF7FF
:1033500083F80020FFF780F83620FFF77DF8002083
:10336000FFF77AF84620FFF777F80020FFF774F8A8
:103370005220FFF771F80020FFF76EF86420FFF786
:103380006BF80020FFF768F87A20FFF765F8002057
:10339000FFF762F88B20FFF75FF80020FFF75CF87B
:1033A0009920FFF759F80020FFF756F8A820FFF7FB
:1033B00053F80020FFF750F8B920FFF74DF8002030
:1033C000FFF74AF8C420FFF747F80020FFF744F85A
:1033D000CA20FFF741F80020FFF73EF8D220FFF7A0
:1033E0003BF80020FFF738F8D920FFF735F8002028
:1033F000FFF732F8E020FFF72FF80020FFF72CF856
:10340000F320FFF729F80020FFF726F8E120FFF767
:1034100034F81620FFF720F80020FFF71DF81C20D5
:10342000FFF71AF80020FFF717F82220FFF714F82B
:103430000020FFF711F83620FFF70EF80020FFF705
:103440000BF84520FFF708F80020FFF705F8522099
:10345000FFF702F80020FEF7FFFF6420FEF7FCFFF5
:103460000020FEF7F9FF7A20FEF7F6FF0020FEF7B6
:10347000F3FF8B20FEF7F0FF0020FEF7EDFF992011
:10348000FEF7EAFF0020FEF7E7FFA820FEF7E4FFC3
:103490000020FEF7E1FFB920FEF7DEFF0020FEF777
:1034A000DBFFC420FEF7D8FF0020FEF7D5FFCA20BF
:1034B000FEF7D2FF0020FEF7CFFFD220FEF7CCFFB1
:1034C0000020FEF7C9FFD820FEF7C6FF0020FEF758
:1034D000C3FFE020FEF7C0FF0020FEF7BDFFF32092
:1034E000FEF7BAFF0020FEF7B7FFE220FEF7C5FFA8
:1034F0000520FEF7B1FF0020FEF7AEFF0B20FEF720
:10350000ABFF0020FEF7A8FF1B20FEF7A5FF002061
:10351000FEF7A2FF3420FEF79FFF0020FEF79CFF7E
:103520004420FEF799FF0020FEF796FF4F20FEF79C
:1035300093FF0020FEF790FF6120FEF78DFF002033
:10354000FEF78AFF7920FEF787FF0020FEF784FF51
:103550008820FEF781FF0020FEF77EFF9720FEF710
:103560007BFF0020FEF778FFA620FEF775FF002006
:10357000FEF772FFB720FEF76FFF0020FEF76CFF2B
:10358000C220FEF769FF0020FEF766FFC720FEF7A6
:1035900063FF0020FEF760FFD120FEF75DFF0020F3
:1035A000FEF75AFFD620FEF757FF0020FEF754FF24
:1035B000DD20FEF751FF0020FEF74EFFF320FEF75F
:1035C0004BFF0020FEF748FFE320FEF756FF0520E3
:1035D000FEF742FF0020FEF73FFF0A20FEF73CFF08
:1035E0000020FEF739FF1C20FEF736FF0020FEF713
:1035F00033FF3320FEF730FF0020FEF72DFF44207D
:10360000FEF72AFF0020FEF727FF5020FEF724FFD9
:103610000020FEF721FF6220FEF71EFF0020FEF7CC
:103620001BFF7820FEF718FF0020FEF715FF88200B
:10363000FEF712FF0020FEF70FFF9720FEF70CFFAA
:103640000020FEF709FFA620FEF706FF0020FEF788
:1036500003FFB720FEF700FF0020FEF7FDFEC220AB
:10366000FEF7FAFE0020FEF7F7FEC720FEF7F4FE95
:103670000020FEF7F1FED120FEF7EEFE0020FEF75F
:10368000EBFED520FEF7E8FE0020FEF7E5FEDD208C
:10369000FEF7E2FE0020FEF7DFFEF320FEF7DCFE81
:1036A0000020FEF7D9FEE420FEF7E7FE0120FEF73A
:1036B000D3FE0020FEF7D0FE0120FEF7CDFE002055
:1036C000FEF7CAFE0220FEF7C7FE0020FEF7C4FE8A
:1036D0002A20FEF7C1FE0020FEF7BEFE3C20FEF7CA
:1036E000BBFE0020FEF7B8FE4B20FEF7B5FE002023
:1036F000FEF7B2FE5D20FEF7AFFE0020FEF7ACFE47
:103700007420FEF7A9FE0020FEF7A6FE8420FEF737
:10371000A3FE0020FEF7A0FE9320FEF79DFE0020F2
:10372000FEF79AFEA220FEF797FE0020FEF794FE19
:10373000B320FEF791FE0020FEF78EFEBE20FEF7BE
:103740008BFE0020FEF788FEC420FEF785FE0020D9
:10375000FEF782FECD20FEF77FFE0020FEF77CFE06
:10376000D320FEF779FE0020FEF776FEDD20FEF77F
:1037700073FE0020FEF770FEF320FEF76DFE0020C2
:10378000FEF76AFEE520FEF778FE0020FEF764FEF5
:103790000020FEF761FE0020FEF75EFE0020FEF72F
:1037A0005BFE0220FEF758FE0020FEF755FE2920A2
:1037B000FEF752FE0020FEF74FFE3C20FEF74CFEC7
:1037C0000020FEF749FE4B20FEF746FE0020FEF7E4
:1037D00043FE5D20FEF740FE0020FEF73DFE742014
:1037E000FEF73AFE0020FEF737FE8420FEF734FE97
:1037F0000020FEF731FE9320FEF72EFE0020FEF79C
:103800002BFEA220FEF728FE0020FEF725FEB320A7
:10381000FEF722FE0020FEF71FFEBE20FEF71CFE74
:103820000020FEF719FEC420FEF716FE0020FEF76A
:1038300013FECD20FEF710FE0020FEF70DFED32074
:10384000FEF70AFE0020FEF707FEDC20FEF704FE6E
:103850000020FEF701FEF320FEF7FEFD0020FEF73C
:10386000FBFDE620FEF709FE1120FEF7F5FD002026
:10387000FEF7F2FD3420FEF7EFFD0020FEF7ECFD31
:103880005620FEF7E9FD0020FEF7E6FD7620FEF764
:10389000E3FD0020FEF7E0FD7720FEF7DDFD0020D0
:1038A000FEF7DAFD6620FEF7D7FD0020FEF7D4FD17
:1038B0008820FEF7D1FD0020FEF7CEFD9920FEF70F
:1038C000CBFD0020FEF7C8FDBB20FEF7C5FD0020A4
:1038D000FEF7C2FD9920FEF7BFFD0020FEF7BCFDFC
:1038E0006620FEF7B9FD0020FEF7B6FD5520FEF775
:1038F000B3FD0020FEF7B0FD5520FEF7ADFD002022
:10390000FEF7AAFD4520FEF7A7FD0020FEF7A4FD67
:103910004320FEF7A1FD0020FEF79EFD4420FEF7A8
:103920009BFD0020FEF798FDE720FEF7A6FD322064
:10393000FEF792FD0020FEF78FFD5520FEF78CFD6F
:103940000020FEF789FD7620FEF786FD0020FEF7B9
:1039500083FD6620FEF780FD0020FEF77DFD6720D9
:10396000FEF77AFD0020FEF777FD6720FEF774FD75
:103970000020FEF771FD8720FEF76EFD0020FEF7A8
:103980006BFD9920FEF768FD0020FEF765FDBB206A
:10399000FEF762FD0020FEF75FFD9920FEF75CFD5B
:1039A0000020FEF759FD7720FEF756FD0020FEF7B8
:1039B00053FD4420FEF750FD0020FEF74DFD56203C
:1039C000FEF74AFD0020FEF747FD2320FEF744FDE9
:1039D0000020FEF741FD3320FEF73EFD0020FEF7FC
:1039E0003BFD4520FEF738FD0020FEF735FDE820C1
:1039F000FEF743FD0020FEF72FFD0020FEF72CFD13
:103A00009920FEF729FD0020FEF726FD8720FEF70E
:103A100023FD0020FEF720FD8820FEF71DFD00207D
:103A2000FEF71AFD7720FEF717FD0020FEF714FDC4
:103A30006620FEF711FD0020FEF70EFD8820FEF740
:103A40000BFD0020FEF708FDAA20FEF705FD002073
:103A5000FEF702FDBB20FEF7FFFC0020FEF7FCFC9A
:103A60009920FEF7F9FC0020FEF7F6FC6620FEF731
:103A7000F3FC0020FEF7F0FC5520FEF7EDFC0020E3
:103A8000FEF7EAFC5520FEF7E7FC0020FEF7E4FC19
:103A90004420FEF7E1FC0020FEF7DEFC4420FEF7A8
:103AA000DBFC0020FEF7D8FC5520FEF7D5FC0020FB
:103AB000FEF7D2FCE920FEF7E0FCAA20FEF7CCFCE2
:103AC0000020FEF7C9FC0020FEF7C6FC0020FEF730
:103AD000C3FC0020FEF7D1FCAA20FEF7BDFCCF20DE
:103AE000FEF7CBFC0020FEF7B7FC0020FEF7B4FC8D
:103AF0000020FEF7B1FC0020FEF7AEFC0020FEF730
:103B0000ABFC0020FEF7A8FC0020FEF7A5FC00207F
:103B1000FEF7A2FC0020FEF79FFC0020FEF79CFCB5
:103B20000020FEF799FC0020FEF796FC0020FEF72F
:103B300093FC0020FEF790FC0020FEF78DFC002097
:103B4000FEF78AFC0020FEF787FCF020FEF795FCCC
:103B50000020FEF781FC5020FEF77EFC0020FEF7DF
:103B60007BFC0020FEF778FC0020FEF775FCF320BC
:103B7000FEF783FC0020FEF76FFCF920FEF77DFCCA
:103B80000620FEF769FC1020FEF766FC2920FEF7F0
:103B900063FC0020FEF760FC3A20FEF76EFC552027
:103BA000FEF75AFC1120FEF768FC6420FDF7A2FE28
:103BB0002920FEF762FC3520FEF75FFC0020FEF7AF
:103BC0004BFC5120FEF759FCFF20FEF745FC53202B
:103BD000FEF753FC2C20FEF73FFC5520FEF74DFC72
:103BE0008220FEF739FC2C20FEF747FC08BD08B503
:103BF00055214FF47040FEF751FCAA214FF201000D
:103C0000FEF74CFC52214FF20200FEF747FC082160
:103C10004FF20300FEF742FC01214FF20400FEF7D1
:103C20003DFC0D214FF43040FEF738FC0D214BF2E6
:103C30000100FEF733FC0D214BF20200FEF72EFCD3
:103C400034214FF43640FEF729FC34214BF2016059
:103C5000FEF724FC34214BF20260FEF71FFC0D211D
:103C60004FF43140FEF71AFC0D214BF20110FEF724
:103C700015FC0D214BF20210FEF710FC34214FF41D
:103C80003740FEF70BFC34214BF20170FEF706FCC7
:103C900034214BF20270FEF701FC00214FF4324058
:103CA000FEF7FCFB00214BF20120FEF7F7FB0021A1
:103CB0004BF20220FEF7F2FB24214FF43840FEF7CE
:103CC000EDFB24214BF60100FEF7E8FB24214BF627
:103CD0000200FEF7E3FB01214FF43F40FEF7DEFB5D
:103CE0000F214FF43340FEF7D9FB0F214BF2013087
:103CF000FEF7D4FB0F214BF20230FEF7CFFB34214D
:103D00004FF43940FEF7CAFB34214BF60110FEF7A1
:103D1000C5FB34214BF60210FEF7C0FB08214FF41F
:103D20003540FEF7BBFB08214BF20150FEF7B6FB16
:103D300008214BF20250FEF7B1FB03214FF4424041
:103D4000FEF7ACFB24214FF43A40FEF7A7FB2421F9
:103D50004BF60120FEF7A2FB24214BF60220FEF7D2
:103D60009DFB00214FF43C40FEF798FB78214BF679
:103D70000140FEF793FB00214BF60240FEF78EFB5D
:103D800000214FF43D40FEF789FB78214BF60150AE
:103D9000FEF784FB00214BF60250FEF77FFB00216B
:103DA0004FF43E40FEF77AFB64214BF60160FEF7CC
:103DB00075FB00214FF45140FEF770FB33214DF2AB
:103DC0000110FEF76BFB00214DF20210FEF766FBBF
:103DD00034214DF20310FEF761FB00214DF2041077
:103DE000FEF75CFB3A214DF20510FEF757FB002170
:103DF0004DF20610FEF752FB4A214DF20710FEF776
:103E00004DFB00214DF20810FEF748FB5C214DF2FE
:103E10000910FEF743FB00214DF20A10FEF73EFBAE
:103E200081214DF20B10FEF739FB00214DF20C10F1
:103E3000FEF734FBA6214DF20D10FEF72FFB0021FB
:103E40004DF20E10FEF72AFBE5214DF20F10FEF7A2
:103E500025FB01214DF21010FEF720FB13214DF23E
:103E60001110FEF71BFB01214DF21210FEF716FB9D
:103E700054214DF21310FEF711FB01214DF21410E5
:103E8000FEF70CFB82214DF21510FEF707FB012116
:103E90004DF21610FEF702FBCA214DF21710FEF785
:103EA000FDFA02214DF21810FEF7F8FA00214DF24A
:103EB0001910FEF7F3FA02214DF21A10FEF7EEFA8E
:103EC00001214DF21B10FEF7E9FA02214DF21C1000
:103ED000FEF7E4FA34214DF21D10FEF7DFFA02215D
:103EE0004DF21E10FEF7DAFA67214DF21F10FEF7B1
:103EF000D5FA02214DF22010FEF7D0FA84214DF2BE
:103F00002110FEF7CBFA02214DF22210FEF7C6FA7D
:103F1000A4214DF22310FEF7C1FA02214DF2241024
:103F2000FEF7BCFAB7214DF22510FEF7B7FA0221D1
:103F30004DF22610FEF7B2FACF214DF22710FEF710
:103F4000ADFA02214DF22810FEF7A8FADE214DF25B
:103F50002910FEF7A3FA02214DF22A10FEF79EFA6D
:103F6000F2214DF22B10FEF799FA02214DF22C109E
:103F7000FEF794FAFE214DF22D10FEF78FFA032181
:103F80004DF22E10FEF78AFA10214DF22F10FEF797
:103F900085FA03214DF23010FEF780FA33214DF2FD
:103FA0003110FEF77BFA03214DF23210FEF776FA5C
:103FB0006D214DF23310FEF771FA00214FF452409B
:103FC000FEF76CFA33214DF20120FEF767FA00216B
:103FD0004DF20220FEF762FA34214DF20320FEF783
:103FE0005DFA00214DF20420FEF758FA3A214DF215
:103FF0000520FEF753FA00214DF20620FEF74EFA97
:104000004A214DF20720FEF749FA00214DF208201F
:10401000FEF744FA5C214DF20920FEF73FFA002139
:104020004DF20A20FEF73AFA81214DF20B20FEF7FD
:1040300035FA00214DF20C20FEF730FAA6214DF2A0
:104040000D20FEF72BFA00214DF20E20FEF726FA86
:10405000E5214DF20F20FEF721FA01214DF210204B
:10406000FEF71CFA13214DF21120FEF717FA012179
:104070004DF21220FEF712FA54214DF21320FEF7F2
:104080000DFA01214DF21420FEF708FA82214DF2BB
:104090001520FEF703FA01214DF21620FEF7FEF976
:1040A000CA214DF21720FEF7F9F902214DF218202E
:1040B000FEF7F4F900214DF21920FEF7EFF9022185
:1040C0004DF21A20FEF7EAF901214DF21B20FEF70E
:1040D000E5F902214DF21C20FEF7E0F934214DF202
:1040E0001D20FEF7DBF902214DF21E20FEF7D6F966
:1040F00067214DF21F20FEF7D1F902214DF2202059
:10410000FEF7CCF984214DF22120FEF7C7F90221F8
:104110004DF22220FEF7C2F9A4214DF22320FEF732
:10412000BDF902214DF22420FEF7B8F9B7214DF276
:104130002520FEF7B3F902214DF22620FEF7AEF955
:10414000CF214DF22720FEF7A9F902214DF22820B8
:10415000FEF7A4F9DE214DF22920FEF79FF9022196
:104160004DF22A20FEF79AF9F2214DF22B20FEF7AC
:1041700095F902214DF22C20FEF790F9FE214DF227
:104180002D20FEF78BF903214DF22E20FEF786F944
:1041900010214DF22F20FEF781F903214DF230203E
:1041A000FEF77CF933214DF23120FEF777F9032138
:1041B0004DF23220FEF772F96D214DF23320FEF7F9
:1041C0006DF900214FF45340FEF768F933214DF2A9
:1041D0000130FEF763F900214DF20230FEF75EF97F
:1041E00034214DF20330FEF759F900214DF204302D
:1041F000FEF754F93A214DF20530FEF74FF9002150
:104200004DF20630FEF74AF94A214DF20730FEF72B
:1042100045F900214DF20830FEF740F95C214DF2DE
:104220000930FEF73BF900214DF20A30FEF736F96E
:1042300081214DF20B30FEF731F900214DF20C30A7
:10424000FEF72CF9A6214DF20D30FEF727F90021DB
:104250004DF20E30FEF722F9E5214DF20F30FEF758
:104260001DF901214DF21030FEF718F913214DF21E
:104270001130FEF713F901214DF21230FEF70EF95D
:1042800054214DF21330FEF709F901214DF214309B
:10429000FEF704F982214DF21530FEF7FFF80121F7
:1042A0004DF21630FEF7FAF8CA214DF21730FEF73C
:1042B000F5F802214DF21830FEF7F0F800214DF22A
:1042C0001930FEF7EBF802214DF21A30FEF7E6F84E
:1042D00001214DF21B30FEF7E1F802214DF21C30B6
:1042E000FEF7DCF834214DF21D30FEF7D7F802213D
:1042F0004DF21E30FEF7D2F867214DF21F30FEF767
:10430000CDF802214DF22030FEF7C8F884214DF29D
:104310002130FEF7C3F802214DF22230FEF7BEF83D
:10432000A4214DF22330FEF7B9F802214DF22430DA
:10433000FEF7B4F8B7214DF22530FEF7AFF80221B1
:104340004DF22630FEF7AAF8CF214DF22730FEF7C6
:10435000A5F802214DF22830FEF7A0F8DE214DF23B
:104360002930FEF79BF802214DF22A30FEF796F82D
:10437000F2214DF22B30FEF791F802214DF22C3054
:10438000FEF78CF8FE214DF22D30FEF787F8032161
:104390004DF22E30FEF782F810214DF22F30FEF74D
:1043A0007DF803214DF23030FEF778F833214DF2DD
:1043B0003130FEF773F803214DF23230FEF76EF81C
:1043C0006D214DF23330FEF769F800214FF454406F
:1043D000FEF764F833214DF20140FEF75FF800214B
:1043E0004DF20240FEF75AF834214DF20340FEF739
:1043F00055F800214DF20440FEF750F83A214DF2F5
:104400000540FEF74BF800214DF20640FEF746F856
:104410004A214DF20740FEF741F800214DF20840D5
:10442000FEF73CF85C214DF20940FEF737F8002119
:104430004DF20A40FEF732F881214DF20B40FEF7B3
:104440002DF800214DF20C40FEF728F8A6214DF280
:104450000D40FEF723F800214DF20E40FEF71EF846
:10446000E5214DF20F40FEF719F801214DF2104001
:10447000FEF714F813214DF21140FEF70FF8012159
:104480004DF21240FEF70AF854214DF21340FEF7A8
:1044900005F801214DF21440FEF700F882214DF29B
:1044A0001540FDF7FBFF01214DF21640FDF7F6FF29
:1044B000CA214DF21740FDF7F1FF02214DF21840DD
:1044C000FDF7ECFF00214DF21940FDF7E7FF022157
:1044D0004DF21A40FDF7E2FF01214DF21B40FDF7BE
:1044E000DDFF02214DF21C40FDF7D8FF34214DF2D3
:1044F0001D40FDF7D3FF02214DF21E40FDF7CEFF18
:1045000067214DF21F40FDF7C9FF02214DF2204007
:10451000FDF7C4FF84214DF22140FDF7BFFF0221CA
:104520004DF22240FDF7BAFFA4214DF22340FDF7E2
:10453000B5FF02214DF22440FDF7B0FFB7214DF247
:104540002540FDF7ABFF02214DF22640FDF7A6FF07
:10455000CF214DF22740FDF7A1FF02214DF2284067
:10456000FDF79CFFDE214DF22940FDF797FF022168
:104570004DF22A40FDF792FFF2214DF22B40FDF75C
:104580008DFF02214DF22C40FDF788FFFE214DF2F8
:104590002D40FDF783FF03214DF22E40FDF77EFFF6
:1045A00010214DF22F40FDF779FF03214DF23040ED
:1045B000FDF774FF33214DF23140FDF76FFF03210A
:1045C0004DF23240FDF76AFF6D214DF23340FDF7A9
:1045D00065FF00214FF45540FDF760FF33214DF298
:1045E0000150FDF75BFF00214DF20250FDF756FF31
:1045F00034214DF20350FDF751FF00214DF20450DC
:10460000FDF74CFF3A214DF20550FDF747FF002121
:104610004DF20650FDF742FF4A214DF20750FDF7DB
:104620003DFF00214DF20850FDF738FF5C214DF2AF
:104630000950FDF733FF00214DF20A50FDF72EFF20
:1046400081214DF20B50FDF729FF00214DF20C5056
:10465000FDF724FFA6214DF20D50FDF71FFF0021AD
:104660004DF20E50FDF71AFFE5214DF20F50FDF708
:1046700015FF01214DF21050FDF710FF13214DF2EF
:104680001150FDF70BFF01214DF21250FDF706FF0F
:1046900054214DF21350FDF701FF01214DF214504A
:1046A000FDF7FCFE82214DF21550FDF7F7FE0121CA
:1046B0004DF21650FDF7F2FECA214DF21750FDF7EC
:1046C000EDFE02214DF21850FDF7E8FE00214DF2FB
:1046D0001950FDF7E3FE02214DF21A50FDF7DEFE00
:1046E00001214DF21B50FDF7D9FE02214DF21C5065
:1046F000FDF7D4FE34214DF21D50FDF7CFFE02210F
:104700004DF21E50FDF7CAFE67214DF21F50FDF716
:10471000C5FE02214DF22050FDF7C0FE84214DF26E
:104720002150FDF7BBFE02214DF22250FDF7B6FEEF
:10473000A4214DF22350FDF7B1FE02214DF2245089
:10474000FDF7ACFEB7214DF22550FDF7A7FE022183
:104750004DF22650FDF7A2FECF214DF22750FDF776
:104760009DFE02214DF22850FDF798FEDE214DF20C
:104770002950FDF793FE02214DF22A50FDF78EFEDF
:10478000F2214DF22B50FDF789FE02214DF22C5003
:10479000FDF784FEFE214DF22D50FDF77FFE032133
:1047A0004DF22E50FDF77AFE10214DF22F50FDF7FD
:1047B00075FE03214DF23050FDF770FE33214DF2AE
:1047C0003150FDF76BFE03214DF23250FDF766FECE
:1047D0006D214DF23350FDF761FE00214FF456403C
:1047E000FDF75CFE33214DF20160FDF757FE00211D
:1047F0004DF20260FDF752FE34214DF20360FDF7E9
:104800004DFE00214DF20460FDF748FE3A214DF2C5
:104810000560FDF743FE00214DF20660FDF73EFE08
:104820004A214DF20760FDF739FE00214DF2086084
:10483000FDF734FE5C214DF20960FDF72FFE0021EB
:104840004DF20A60FDF72AFE81214DF20B60FDF763
:1048500025FE00214DF20C60FDF720FEA6214DF251
:104860000D60FDF71BFE00214DF20E60FDF716FEF8
:10487000E5214DF20F60FDF711FE01214DF21060B0
:10488000FDF70CFE13214DF21160FDF707FE01212B
:104890004DF21260FDF702FE54214DF21360FDF758
:1048A000FDFD01214DF21460FDF7F8FD82214DF26E
:1048B0001560FDF7F3FD01214DF21660FDF7EEFDE9
:1048C000CA214DF21760FDF7E9FD02214DF2186093
:1048D000FDF7E4FD00214DF21960FDF7DFFD022137
:1048E0004DF21A60FDF7DAFD01214DF21B60FDF774
:1048F000D5FD02214DF21C60FDF7D0FD34214DF2B3
:104900001D60FDF7CBFD02214DF21E60FDF7C6FDD7
:1049100067214DF21F60FDF7C1FD02214DF22060BD
:10492000FDF7BCFD84214DF22160FDF7B7FD0221AA
:104930004DF22260FDF7B2FDA4214DF22360FDF798
:10494000ADFD02214DF22460FDF7A8FDB7214DF227
:104950002560FDF7A3FD02214DF22660FDF79EFDC7
:10496000CF214DF22760FDF799FD02214DF228601D
:10497000FDF794FDDE214DF22960FDF78FFD022148
:104980004DF22A60FDF78AFDF2214DF22B60FDF712
:1049900085FD02214DF22C60FDF780FDFE214DF2D8
:1049A0002D60FDF77BFD03214DF22E60FDF776FDB6
:1049B00010214DF22F60FDF771FD03214DF23060A3
:1049C000FDF76CFD33214DF23160FDF767FD0321EA
:1049D0004DF23260FDF762FD6D214DF23360FDF75F
:1049E0005DFD55214FF47040FDF758FDAA214FF2AF
:1049F0000100FDF753FD52214FF20200FDF74EFD7D
:104A000008214FF20300FDF749FD00214FF2040099
:104A1000FDF744FDCC214FF43140FDF73FFD00216F
:104A20004BF20110FDF73AFD05214FF43640FDF73A
:104A300035FD70214FF43740FDF730FD70214BF20A
:104A40000170FDF72BFD01214FF43840FDF726FDE5
:104A500003214BF60100FDF721FD03214BF6020077
:104A6000FDF71CFD03214BF60300FDF717FD0221A6
:104A70004FF43C40FDF712FD00214BF60140FDF7DD
:104A80000DFD00214BF60240FDF708FDD0214FF44B
:104A90004940FDF703FD02214CF60110FDF7FEFC35
:104AA00050214CF60210FDF7F9FC50214CF6031092
:104AB000FDF7F4FC50214CF60410FDF7EFFC00214B
:104AC0004FF45450FDF7EAFC55214FF46850FDF7C0
:104AD000E5FC4FF48850FDF7D0FC7820FCF7EAFEA7
:104AE0004FF42450FDF7C9FC08BD08B5E220FDF7DE
:104AF000C4FC1D20FDF7B0FC0220FDF7ADFC042036
:104B0000FDF7AAFC6420FCF7D5FEE020FDF7B5FC1C
:104B10000120FDF7A1FC0A20FCF7ECFEE020FDF7E8
:104B2000ACFC0320FDF798FC0C20FCF7E3FE012011
:104B3000FDF7A3FC0A20FCF7DDFEE620FDF79DFC57
:104B40002F20FDF789FCFF20FDF786FCFF20FDF7F5
:104B500083FCB020FDF791FC2020FDF77DFC0020B8
:104B6000FDF77AFC0320FDF777FC40F21F30FDF7DC
:104B700073FC0120FDF770FC40F2DF10FDF76CFCC8
:104B80000020FDF769FCB420FDF777FC0420FDF759
:104B900063FC40F21F40FDF75FFC0020FDF75CFC6A
:104BA0002E20FDF759FC0020FDF756FC0020FDF7F4
:104BB00053FC0020FDF750FC0020FDF74DFCB62013
:104BC000FDF75BFC0220FDF747FC4FF40370FDF797
:104BD00043FC0020FDF740FC1720FDF73DFC1520AD
:104BE000FDF73AFC0020FDF737FC0020FDF734FC10
:104BF000F020FDF742FC0320FDF72EFC2920FDF7F5
:104C00003CFCD020FDF739FC0020FDF725FCBE2040
:104C1000FDF733FC0520FDF71FFCFE20FDF71CFC13
:104C20000120FDF719FC0020FDF716FC0020FDF720
:104C300013FC0020FDF710FCB820FDF71EFC03203C
:104C4000FDF70AFC0120FDF707FCBA20FDF715FC73
:104C50000120FDF701FC08BD38B505460A4B1A884E
:104C60005C8802FB04F400210846FDF729FCFDF7EF
:104C70001DFC002304E04FF0D842A2F8805001331D
:104C8000A342F8D338BD00BF800B00202DE9F041CE
:104C900098B000240094754B1A6B42F040021A63DE
:104CA0001A6B02F040020092009A01941A6B42F0D3
:104CB00008021A631A6B02F008020192019A029428
:104CC0001A6B42F008021A631A6B02F00802029291
:104CD000029A03941A6B42F040021A631A6B02F0B4
:104CE00040020392039A04941A6B42F002021A6380
:104CF0001B6B03F002030493049B4FF48055139540
:104D0000022314930127159716930C23179313A9C5
:104D1000574802F0BBFA20231393DFF8688113A9E8
:104D2000404602F0B3FA1026139613A9404602F04B
:104D3000ADFA139513A94F4802F0A8FA4FF40043B7
:104D40001393149713A94C4802F0A0FA4B484FF064
:104D50002043036003F58273436006238360C460CD
:104D600046618461C46144628562C4624FF48043D9
:104D70000363446384630F230C930D943C230E93CD
:104D80001294089409230593069407930B9405AA9B
:104D90000CA903F09FFB3220FCF7ACFDD320FDF7FC
:104DA0006CFBFDF741FB364CA080FDF73DFBA0807E
:104DB000FDF73AFBA0800002A080FDF735FBA38839
:104DC000184380B2A08049F2413398425CD12C4B09
:104DD0009B8847F28972934200F0E08049F24132A9
:104DE000934200F0DE8045F21032934200F0DC8006
:104DF00045F21052934200F0DA8041F6631293427A
:104E000000F0D8801E4B9B8849F24132934207D074
:104E100041F66312934203D047F28972934209D15B
:104E20000323059307931548036B826805A940681F
:104E300004F082F9124B9B8845F21032934200F045
:104E4000BF8045F21052934200F0BA800020FDF777
:104E5000DFFC01224FF40041074802F010FB4FF63F
:104E6000FF70FFF7F9FE18B0BDE8F081003802408E
:104E7000001802400014024000040240300B0020E1
:104E8000800B0020000C02400420FDF7F6FAFDF72D
:104E9000CBFAA080FDF7C8FAA080FDF7C5FAA08084
:104EA0000002A080FDF7C0FAA388184380B2A0805A
:104EB00048F2525398426DD0474B9A8847F2897313
:104EC0009A4284D0D420FDF7D8FAFDF7ADFA424CCF
:104ED000A080FDF7A9FAA080FDF7A6FAA080000245
:104EE000A080FDF7A1FAA388184380B2A08045F204
:104EF000103398423FF46BAF55214FF47040FDF7EB
:104F0000CDFAAA214FF20100FDF7C8FA52214FF263
:104F10000200FDF7C3FA08214FF20300FDF7BEFAC5
:104F200001214FF20400FDF7B9FA4FF44540FDF7B7
:104F3000A4FAFDF779FAA0800002A0804CF201509B
:104F4000FDF79BFAFDF770FAA3881843A0800520AF
:104F5000FCF7D0FCA28845F210539A423FF437AFD9
:104F6000A120FDF78AFAFDF75FFAA080FDF75CFA51
:104F7000A0800002A080FDF757FAA38803439BB2EC
:104F8000A38045F2617293427FF421AF41F6631230
:104F9000A2801CE747F28972A2808DE7FDF7C4FC6E
:104FA00030E7FDF795FD2DE7FDF7A8FE2AE7FEF7B0
:104FB0001EFE27E7FFF799FD6420FDF701FC21E7BE
:104FC0000223059307930548036B826805A940688F
:104FD00004F0B2F83AE700BF800B0020300B00204D
:104FE0002DE9F04107460E469846069D141AA4B2D4
:104FF0000134A4B20AE0ABB24FF0D84CACF8803028
:10500000013292B2A242F6D30136B6B2464507D873
:1050100031463846FDF754FAFDF748FA0022F1E729
:10502000BDE8F0812DE9F04F85B0BDF8384001941E
:105030008046A2EB000A8946A3EB010BBAF1000FF0
:105040000DDD01220292BBF1000F14DD0123039359
:10505000DA451CDD564600252F462C461BE0BAF1EA
:10506000000F05D0A0EB020A4FF0FF320292EAE7F0
:10507000CDF808A0E7E7BBF1000F05D0A1EB030BCB
:105080004FF0FF330393E3E7CDF80CB0E0E75E4663
:10509000E1E70134A4B2731C9C4213DC019A1FFAAD
:1050A00089F11FFA88F0FDF77DFB57445D44BE424D
:1050B00002DABF1B029B9844AE42EADAAD1B039BA7
:1050C0009944E6E705B0BDE8F08F2DE9F04F87B0D1
:1050D000814688461E4601925200C2F103030293A4
:1050E000002708E0019ABB1A9B000A330299194471
:1050F0000291531E0193019B9F4253DCBDB205EB0D
:10510000090B1FFA8BFBBDF80440A8EB04039BB20C
:105110003246039319465846FDF744FB04EB090A4F
:105120001FFA8AFAA8EB05039AB210463246049099
:1051300001465046FDF736FB05EB08039AB21046D0
:105140003246059001465046FDF72CFB04EB080A59
:105150001FFA8AFA324651465846FDF723FBA9EB5F
:105160000505ADB2324651462846FDF71BFBA9EBBB
:105170000404A4B2324605992046FDF713FB3246DB
:1051800003992846FDF70EFB324604992046FDF7A9
:1051900009FB0137029A002AA4DABB0006331A443D
:1051A0000292A8E707B0BDE8F08F00002DE9F04FAC
:1051B00085B0824688461F469DF838B0BDF83C3021
:1051C000019317F0070318BF012303EBD7037908F6
:1051D00011FB03F3DBB20293A2F12003DBB2A7F1D0
:1051E0000C02142A5ED8DFE802F00B5D5D5D155DF0
:1051F0005D5D5D5D5D5D1A5D5D5D5D5D5D5D2100BB
:1052000003EB4303294A02EB8303039344464FF025
:1052100000093FE0264A02EB03130393F6E703EB92
:10522000C303244A02EB83030393EFE7224A02EB12
:1052300083130393EAE7019A21465046FDF7B2FA39
:105240006D00EDB20134A4B21C4B5B88A34229D996
:10525000A4EB08039F4210D00136F6B2072E15D8F2
:1052600015F0800FE7D1BBF1000FE9D1144B1A689C
:1052700021465046FDF796FAE2E70AF1010A1FFAC5
:105280008AFA0E4B1B8853450CD9444609F1010993
:105290005FFA89F9029B994504D2039B13F80950E0
:1052A0000026DBE705B0BDE8F08F00BFEC1D01086C
:1052B0006022010850280108AC350108800B00204D
:1052C000040000202DE9F04F83B0824689469046C5
:1052D0001D469DF83060BDF834B000273C461DE007
:1052E000700800FB04A0CDF804B0002300933346FF
:1052F0002022494680B2FFF759FF0DE07008303296
:1053000000FB04A0CDF804B0002300933346D2B2D2
:10531000494680B2FFF74AFF0134E4B2AC421AD2E8
:10532000291BC9B20139C9B20A20FDF78AF8B8FBB6
:10533000F0F00A4AA2FB0032D20802EB8202A0EB94
:105340004202D2B2002FD9D16B1E9C42D6DA002A7B
:10535000C6D00127D2E703B0BDE8F08FCDCCCCCCCE
:105360002DE9F04F83B082460D469DF830700D9EBA
:10537000BDF838B002441FFA82F90B441FFA83F8D3
:1053800004460EE0454519D2CDF804B00023009341
:105390003B4629462046FFF709FF04EB5704A4B219
:1053A00001363278A2F12003DBB25E2B06D84C45E1
:1053B000E8D35FFA8AF43D44ADB2E3E703B0BDE859
:1053C000F08F72B6FEE7000000B595B030220021E4
:1053D00008A804F061FF0023039304930593069348
:1053E000079301931F4A116C41F080511164126CB4
:1053F00002F080520192019A02931B4A116841F413
:1054000080411160126802F480420292029A0222E4
:10541000089201210B9110210C910E920F930823F9
:105420001093A823119312920723139308A802F054
:105430002DF898B90F2303930223049300230593B7
:105440004FF4A05306934FF480530793052103A80C
:1054500002F06AFA20B915B05DF804FBFFF7B1FF5E
:10546000FFF7AFFF003802400070004070B592B007
:1054700001F0A0FAFFF7A8FFFCF7E0FCFCF760FAE8
:1054800000F05AFCFCF7EEFAFCF73EF800F01CFCCA
:1054900000F0C6FA01F0E2F900F0F4FA04F0BEF907
:1054A0009E4803F073F89E4803F070F89D4801F0A1
:1054B00073FBA820FCF7F4F9FFF7E8FB0120FDF7E8
:1054C000A7F9994B1B689847984D0AA9284602F0FE
:1054D000DEFF044604A9284602F0E2FD11E04FF485
:1054E00078430293924B0193202300932823C822F0
:1054F0000A210846FFF734FF0AA98C4802F0C7FFCB
:105500000446002CEBD1109A119BA2FB0323160D2D
:1055100046EA03364FF4784501951024009405239C
:105520000C9A0A21C820FFF7CDFE0295814B01930A
:1055300000942823C8220A210846FFF711FF01958D
:10554000009405230E9A2821C820FFF7BBFE029580
:10555000794B019300942823C82219460A20FFF7AB
:10556000FFFE0195009405230F9A4621C820FFF7FE
:10557000A9FE0295714B019300942823C82246216D
:105580000A20FFF7EDFE0195009405230A9A642195
:10559000C820FFF797FE0295694B019300942823DA
:1055A000C82264210A20FFF7DBFE01950094052341
:1055B0000B9A8221C820FFF785FE0295614B01936B
:1055C00000942823C82282210A20FFF7C9FE0195F2
:1055D00000940523109AA021C820FFF773FE0295BE
:1055E000594B019300942823C822A0210A20FFF7D9
:1055F000B7FE019500940523119ABE21C820FFF73C
:1056000061FE0295514B019300942823C822BE21CC
:105610000A20FFF7A5FE0195009405230D9ADC21D1
:10562000C820FFF74FFE0295494B019300942823B1
:10563000C822DC210A20FFF793FE01950094052380
:105640003246FA21C820FFF73DFE0295414B0193F7
:1056500000942823C822FA210A20FFF781FE029530
:105660003D4B019300942823C822FA210846FFF7F6
:1056700077FE9DF810200195009405234FF48C715E
:10568000C820FFF71FFE0295344B01930094282396
:10569000C8224FF48C710A20FFF762FE9DF8242087
:1056A0000195009405234FF49B71C820FFF70AFE73
:1056B00002952B4B019300942823C8224FF49B7131
:1056C0000A20FFF74DFEBDF8222001950094052326
:1056D00092B24FF4AA71C820FFF7F4FD0295214B56
:1056E000019300942823C8224FF4AA710A20FFF7DF
:1056F00037FE01221C491D4804F0F2FB1C4B1870B8
:1057000000B1FEE702951B4B019300942823C822A9
:1057100000214FF4FA70FFF723FEF2E7A40E0020F9
:105720005C0E00202C0A00200C000020D40D00206C
:105730006C4D0108804D0108904D0108A44D0108F1
:10574000B84D0108CC4D0108E44D0108FC4D01089D
:10575000144E0108284E0108344E0108384E010845
:10576000504E01085C4E0108704E0108900B00205D
:105770008E0B0020744E010808B50220FCF79AF841
:1057800008BD000010B5104C01224FF400712046F6
:1057900001F075FE01224FF48071204601F06FFE8A
:1057A000FFF7EAFF00224FF40071204601F067FE88
:1057B000FFF7E2FF00224FF48071204601F05FFE08
:1057C000FFF7DAFF10BD00BF0004024010B50D4C1A
:1057D00000224FF40071204601F051FEFFF7CCFF8C
:1057E00001224FF48071204601F049FEFFF7C4FF0B
:1057F00001224FF40071204601F041FEFFF7BCFF8B
:1058000010BD00BF0004024010B588B00021019116
:10581000164B1A6B42F002021A631A6B02F0020274
:105820000192019A02911A6B42F002021A631B6BF9
:1058300003F002030293029B4FF48073039301234E
:105840000493059303230693094C03A9204601F012
:105850001DFD4FF4007303931123049303A9204605
:1058600001F014FDFFF7B2FF08B010BD0038024090
:105870000004024038B5154C01224FF40071204657
:1058800001F0FDFDFFF778FF01224FF48071204603
:1058900001F0F5FDFFF770FF00244FF400710B4895
:1058A00001F0E6FD054630B10134E4B2FA2CF4D93A
:1058B000FFF78CFF012500224FF48071034801F0AF
:1058C000DEFDFFF759FF284638BD00BF0004024047
:1058D00010B5114C00224FF40071204601F0CFFDAD
:1058E000FFF74AFF01224FF48071204601F0C7FD07
:1058F000FFF742FF00224FF48071204601F0BFFD08
:10590000FFF73AFF01224FF40071204601F0B7FD86
:10591000FFF732FF10BD00BF0004024010B50D4C70
:1059200001224FF40071204601F0A9FDFFF724FF8A
:1059300001224FF48071204601F0A1FDFFF71CFF0A
:1059400000224FF48071204601F099FDFFF714FF0B
:1059500010BD00BF0004024070B5044600251AE0E7
:1059600000224FF40071154801F089FDFFF704FF94
:10597000124E01224FF48071304601F080FDFFF796
:10598000FBFE00224FF48071304601F078FD640088
:10599000E4B20135EDB2072D09D814F0800FDFD045
:1059A00001224FF40071054801F069FDDEE7012294
:1059B0004FF40071014801F062FD70BD0004024027
:1059C000F8B507460024254609E000224FF480710F
:1059D000124801F054FDFFF7CFFE0135EDB2072D5F
:1059E00014D86400E4B20D4E01224FF480713046A9
:1059F00001F045FDFFF7C0FE4FF40071304601F0A5
:105A000037FD0028E1D00134E4B2DEE71FB9FFF72B
:105A100085FF2046F8BDFFF75BFFFAE70004024070
:105A200008B50548054B036002F054F800B908BDFD
:105A3000FFF7C7FCFBE700BFC40D002000080650BD
:105A400002680E4B9A4200D0704700B583B0002127
:105A500001910B4B5A6B42F040025A635B6B03F0AF
:105A600040030193019B0A46502001F0C1FA5020E7
:105A700001F0F6FA03B05DF804FB00BF0008065021
:105A80000038024008B50948094B03600023436011
:105A90008360C360036143610423836102F0DCFC23
:105AA00000B908BDFFF78DFCFBE700BFD40D002057
:105AB000002C0140F0B589B00023039304930593B3
:105AC000069307930268204B9A4201D009B0F0BDBB
:105AD0000024009403F586335A6C42F400625A6441
:105AE0005A6C02F400620092009A01941A6B42F020
:105AF00004021A631A6B02F004020192019A0294E2
:105B00001A6B42F008021A631B6B03F0080302933E
